{
  "contractName": "government_factory",
  "abi": [
    {
      "constant": true,
      "inputs": [
        {
          "name": "",
          "type": "uint256"
        }
      ],
      "name": "governments",
      "outputs": [
        {
          "name": "money",
          "type": "uint256"
        },
        {
          "name": "leader",
          "type": "string"
        },
        {
          "name": "parliamentary_seats",
          "type": "uint256"
        },
        {
          "name": "tyrannical",
          "type": "bool"
        },
        {
          "name": "private_money",
          "type": "uint256"
        }
      ],
      "payable": false,
      "stateMutability": "view",
      "type": "function"
    },
    {
      "constant": true,
      "inputs": [
        {
          "name": "",
          "type": "uint256"
        }
      ],
      "name": "government_to_owner",
      "outputs": [
        {
          "name": "",
          "type": "address"
        }
      ],
      "payable": false,
      "stateMutability": "view",
      "type": "function"
    },
    {
      "anonymous": false,
      "inputs": [
        {
          "indexed": false,
          "name": "government_id",
          "type": "uint256"
        },
        {
          "indexed": false,
          "name": "leader",
          "type": "string"
        }
      ],
      "name": "new_government",
      "type": "event"
    },
    {
      "constant": false,
      "inputs": [
        {
          "name": "money",
          "type": "uint256"
        },
        {
          "name": "leader",
          "type": "string"
        },
        {
          "name": "parliamentary_seats",
          "type": "uint256"
        },
        {
          "name": "leaders",
          "type": "bytes32[3]"
        },
        {
          "name": "tyrannical",
          "type": "bool"
        },
        {
          "name": "private_money",
          "type": "uint256"
        }
      ],
      "name": "create_government",
      "outputs": [
        {
          "components": [
            {
              "name": "money",
              "type": "uint256"
            },
            {
              "name": "leader",
              "type": "string"
            },
            {
              "name": "parliamentary_seats",
              "type": "uint256"
            },
            {
              "name": "leaders",
              "type": "bytes32[3]"
            },
            {
              "name": "tyrannical",
              "type": "bool"
            },
            {
              "name": "private_money",
              "type": "uint256"
            }
          ],
          "name": "",
          "type": "tuple"
        }
      ],
      "payable": false,
      "stateMutability": "nonpayable",
      "type": "function"
    },
    {
      "constant": false,
      "inputs": [
        {
          "name": "candidates",
          "type": "string[]"
        },
        {
          "name": "government_id",
          "type": "uint256"
        }
      ],
      "name": "presidential_election",
      "outputs": [],
      "payable": false,
      "stateMutability": "nonpayable",
      "type": "function"
    },
    {
      "constant": false,
      "inputs": [
        {
          "name": "candidates",
          "type": "bytes32[3]"
        },
        {
          "name": "seat",
          "type": "uint256"
        },
        {
          "name": "government_id",
          "type": "uint256"
        }
      ],
      "name": "parlimentary_election",
      "outputs": [],
      "payable": false,
      "stateMutability": "nonpayable",
      "type": "function"
    },
    {
      "constant": false,
      "inputs": [
        {
          "name": "candidate",
          "type": "string"
        },
        {
          "name": "government_id",
          "type": "uint256"
        }
      ],
      "name": "tyrannical_election",
      "outputs": [],
      "payable": false,
      "stateMutability": "nonpayable",
      "type": "function"
    },
    {
      "constant": false,
      "inputs": [
        {
          "name": "amount",
          "type": "uint256"
        },
        {
          "name": "government_id",
          "type": "uint256"
        }
      ],
      "name": "spend_money",
      "outputs": [],
      "payable": false,
      "stateMutability": "nonpayable",
      "type": "function"
    },
    {
      "constant": false,
      "inputs": [
        {
          "name": "amount",
          "type": "uint256"
        },
        {
          "name": "government_id",
          "type": "uint256"
        }
      ],
      "name": "tax",
      "outputs": [],
      "payable": false,
      "stateMutability": "nonpayable",
      "type": "function"
    },
    {
      "constant": false,
      "inputs": [
        {
          "name": "amount",
          "type": "uint256"
        },
        {
          "name": "government_id",
          "type": "uint256"
        }
      ],
      "name": "generate_money",
      "outputs": [],
      "payable": false,
      "stateMutability": "nonpayable",
      "type": "function"
    }
  ],
  "bytecode": "0x60806040526000805534801561001457600080fd5b506113b0806100246000396000f3fe608060405234801561001057600080fd5b50600436106100935760003560e01c80635aa44c5b116100665780635aa44c5b14610134578063a2db4f2414610150578063e0bf71a01461016c578063eac8a1b71461019c578063ecb6ac83146101b857610093565b806314f74150146100985780632e2eba7e146100cc57806331a57886146100e857806355174c3214610118575b600080fd5b6100b260048036036100ad9190810190610cd4565b6101d4565b6040516100c39594939291906110b1565b60405180910390f35b6100e660048036036100e19190810190610c80565b6102bc565b005b61010260048036036100fd9190810190610cfd565b61031b565b60405161010f919061105f565b60405180910390f35b610132600480360361012d9190810190610d9f565b6105de565b005b61014e60048036036101499190810190610d9f565b610625565b005b61016a60048036036101659190810190610bdd565b61066c565b005b61018660048036036101819190810190610cd4565b6106e7565b6040516101939190611044565b60405180910390f35b6101b660048036036101b19190810190610d9f565b61071a565b005b6101d260048036036101cd9190810190610c2c565b610750565b005b600181815481106101e157fe5b9060005260206000209060080201600091509050806000015490806001018054600181600116156101000203166002900480601f0160208091040260200160405190810160405280929190818152602001828054600181600116156101000203166002900480156102935780601f1061026857610100808354040283529160200191610293565b820191906000526020600020905b81548152906001019060200180831161027657829003601f168201915b5050505050908060020154908060060160009054906101000a900460ff16908060070154905085565b6000600182815481106102cb57fe5b90600052602060002090600802019050600115158160060160009054906101000a900460ff161515146102fd57600080fd5b82816001019080519060200190610315929190610823565b50505050565b6103236108a3565b60006001806040518060c001604052808b81526020018a8152602001898152602001888152602001871515815260200186815250908060018154018082558091505090600182039060005260206000209060080201600090919290919091506000820151816000015560208201518160010190805190602001906103a89291906108e2565b50604082015181600201556060820151816003019060036103ca929190610962565b5060808201518160060160006101000a81548160ff02191690831515021790555060a082015181600701555050039050336002600083815260200190815260200160002060006101000a81548173ffffffffffffffffffffffffffffffffffffffff021916908373ffffffffffffffffffffffffffffffffffffffff1602179055507fd5ad64d2769a57dda89e8b7f0ad637b6592e416649a7ecd88fb0db4e47e93235818860405161047d929190611081565b60405180910390a16001808080549050038154811061049857fe5b90600052602060002090600802016040518060c001604052908160008201548152602001600182018054600181600116156101000203166002900480601f0160208091040260200160405190810160405280929190818152602001828054600181600116156101000203166002900480156105545780601f1061052957610100808354040283529160200191610554565b820191906000526020600020905b81548152906001019060200180831161053757829003601f168201915b5050505050815260200160028201548152602001600382016003806020026040519081016040528092919082600380156105a3576020028201915b81548152602001906001019080831161058f575b505050505081526020016006820160009054906101000a900460ff161515151581526020016007820154815250509150509695505050505050565b6000600182815481106105ed57fe5b90600052602060002090600802019050828160070154101561060e57600080fd5b828160070160008282540392505081905550505050565b60006001828154811061063457fe5b90600052602060002090600802019050828160000154101561065557600080fd5b828160000160008282540392505081905550505050565b60006001828154811061067b57fe5b90600052602060002090600802019050600015158160060160009054906101000a900460ff161515146106ad57600080fd5b60006106b960036107d1565b90508481600381106106c757fe5b60200201518260030185600381106106db57fe5b01819055505050505050565b60026020528060005260406000206000915054906101000a900473ffffffffffffffffffffffffffffffffffffffff1681565b60006001828154811061072957fe5b90600052602060002090600802019050828160070160008282540192505081905550505050565b60006001828154811061075f57fe5b90600052602060002090600802019050600015158160060160009054906101000a900460ff1615151461079157600080fd5b600061079d84516107d1565b90508381815181106107ab57fe5b60200260200101518260010190805190602001906107ca929190610823565b5050505050565b6000600160008082825401925050819055508142336000546040516020016107fb93929190611007565b6040516020818303038152906040528051906020012060001c8161081b57fe5b069050919050565b828054600181600116156101000203166002900490600052602060002090601f016020900481019282601f1061086457805160ff1916838001178555610892565b82800160010185558215610892579182015b82811115610891578251825591602001919060010190610876565b5b50905061089f91906109a2565b5090565b6040518061010001604052806000815260200160608152602001600081526020016108cc6109c7565b8152602001600015158152602001600081525090565b828054600181600116156101000203166002900490600052602060002090601f016020900481019282601f1061092357805160ff1916838001178555610951565b82800160010185558215610951579182015b82811115610950578251825591602001919060010190610935565b5b50905061095e91906109a2565b5090565b8260038101928215610991579160200282015b82811115610990578251825591602001919060010190610975565b5b50905061099e91906109e9565b5090565b6109c491905b808211156109c05760008160009055506001016109a8565b5090565b90565b6040518060600160405280600390602082028038833980820191505090505090565b610a0b91905b80821115610a075760008160009055506001016109ef565b5090565b90565b600082601f830112610a1f57600080fd5b6003610a32610a2d82611138565b61110b565b91508183856020840282011115610a4857600080fd5b60005b83811015610a785781610a5e8882610b0b565b845260208401935060208301925050600181019050610a4b565b5050505092915050565b600082601f830112610a9357600080fd5b8135610aa6610aa18261115a565b61110b565b9150818183526020840193506020810190508360005b83811015610aec5781358601610ad28882610b20565b845260208401935060208301925050600181019050610abc565b5050505092915050565b600081359050610b0581611331565b92915050565b600081359050610b1a81611348565b92915050565b600082601f830112610b3157600080fd5b8135610b44610b3f82611182565b61110b565b91508082526020830160208301858383011115610b6057600080fd5b610b6b8382846112a3565b50505092915050565b600082601f830112610b8557600080fd5b8135610b98610b93826111ae565b61110b565b91508082526020830160208301858383011115610bb457600080fd5b610bbf8382846112a3565b50505092915050565b600081359050610bd78161135f565b92915050565b600080600060a08486031215610bf257600080fd5b6000610c0086828701610a0e565b9350506060610c1186828701610bc8565b9250506080610c2286828701610bc8565b9150509250925092565b60008060408385031215610c3f57600080fd5b600083013567ffffffffffffffff811115610c5957600080fd5b610c6585828601610a82565b9250506020610c7685828601610bc8565b9150509250929050565b60008060408385031215610c9357600080fd5b600083013567ffffffffffffffff811115610cad57600080fd5b610cb985828601610b74565b9250506020610cca85828601610bc8565b9150509250929050565b600060208284031215610ce657600080fd5b6000610cf484828501610bc8565b91505092915050565b6000806000806000806101008789031215610d1757600080fd5b6000610d2589828a01610bc8565b965050602087013567ffffffffffffffff811115610d4257600080fd5b610d4e89828a01610b74565b9550506040610d5f89828a01610bc8565b9450506060610d7089828a01610a0e565b93505060c0610d8189828a01610af6565b92505060e0610d9289828a01610bc8565b9150509295509295509295565b60008060408385031215610db257600080fd5b6000610dc085828601610bc8565b9250506020610dd185828601610bc8565b9150509250929050565b6000610de78383610e8e565b60208301905092915050565b610e04610dff82611251565b6112e5565b82525050565b610e138161123f565b82525050565b610e22816111e4565b610e2c8184611212565b9250610e37826111da565b8060005b83811015610e68578151610e4f8782610ddb565b9650610e5a83611205565b925050600181019050610e3b565b505050505050565b610e7981611263565b82525050565b610e8881611263565b82525050565b610e978161126f565b82525050565b6000610ea8826111fa565b610eb2818561122e565b9350610ec28185602086016112b2565b610ecb81611313565b840191505092915050565b6000610ee1826111ef565b610eeb818561121d565b9350610efb8185602086016112b2565b610f0481611313565b840191505092915050565b6000610f1a826111ef565b610f24818561122e565b9350610f348185602086016112b2565b610f3d81611313565b840191505092915050565b600061010083016000830151610f616000860182610fd2565b5060208301518482036020860152610f798282610ed6565b9150506040830151610f8e6040860182610fd2565b506060830151610fa16060860182610e19565b506080830151610fb460c0860182610e70565b5060a0830151610fc760e0860182610fd2565b508091505092915050565b610fdb81611299565b82525050565b610fea81611299565b82525050565b611001610ffc82611299565b611309565b82525050565b60006110138286610ff0565b6020820191506110238285610df3565b6014820191506110338284610ff0565b602082019150819050949350505050565b60006020820190506110596000830184610e0a565b92915050565b600060208201905081810360008301526110798184610f48565b905092915050565b60006040820190506110966000830185610fe1565b81810360208301526110a88184610e9d565b90509392505050565b600060a0820190506110c66000830188610fe1565b81810360208301526110d88187610f0f565b90506110e76040830186610fe1565b6110f46060830185610e7f565b6111016080830184610fe1565b9695505050505050565b6000604051905081810181811067ffffffffffffffff8211171561112e57600080fd5b8060405250919050565b600067ffffffffffffffff82111561114f57600080fd5b602082029050919050565b600067ffffffffffffffff82111561117157600080fd5b602082029050602081019050919050565b600067ffffffffffffffff82111561119957600080fd5b601f19601f8301169050602081019050919050565b600067ffffffffffffffff8211156111c557600080fd5b601f19601f8301169050602081019050919050565b6000819050919050565b600060039050919050565b600081519050919050565b600081519050919050565b6000602082019050919050565b600081905092915050565b600082825260208201905092915050565b600082825260208201905092915050565b600061124a82611279565b9050919050565b600061125c82611279565b9050919050565b60008115159050919050565b6000819050919050565b600073ffffffffffffffffffffffffffffffffffffffff82169050919050565b6000819050919050565b82818337600083830152505050565b60005b838110156112d05780820151818401526020810190506112b5565b838111156112df576000848401525b50505050565b60006112f0826112f7565b9050919050565b600061130282611324565b9050919050565b6000819050919050565b6000601f19601f8301169050919050565b60008160601b9050919050565b61133a81611263565b811461134557600080fd5b50565b6113518161126f565b811461135c57600080fd5b50565b61136881611299565b811461137357600080fd5b5056fea265627a7a7230582070614688a2268b90a93964813586f66f34a39dcbda279725f3fc1411b192d9e86c6578706572696d656e74616cf50037",
  "source": "pragma solidity 0.4.21-0.6.0;\npragma experimental ABIEncoderV2;\n\ncontract government_factory {\n    event new_government(uint government_id, string leader);\n    struct Government{\n        uint money;\nstring leader;\nuint parliamentary_seats;\nbytes32[3] leaders;\nbool tyrannical;\n\nuint private_money;\n\n\n    }\n    uint randNonce = 0;\nGovernment[] public governments;\n\nmapping (uint => address) public government_to_owner;\n\n  \nfunction create_government(uint money, string memory leader, uint parliamentary_seats, bytes32[3] memory leaders, bool tyrannical, uint private_money) public returns(Government memory){\nuint id = governments.push(Government(money,leader, parliamentary_seats, leaders,  tyrannical, private_money)) - 1;\ngovernment_to_owner[id] = msg.sender;\nemit new_government(id, leader);\nreturn governments[governments.length-1];\n}\nfunction presidential_election(string[] memory candidates,uint government_id) public{\n    Government storage gov = governments[government_id];\n    require(gov.tyrannical == false);\nuint winner = randMod(candidates.length);\ngov.leader = candidates[winner];\n\n}\nfunction parlimentary_election(bytes32[3] memory candidates,uint seat,uint government_id) public{\n    Government storage gov = governments[government_id];\n    require(gov.tyrannical == false);\nuint winner = randMod(candidates.length);\ngov.leaders[seat] = candidates[winner];\n}\nfunction tyrannical_election(string memory candidate,uint government_id) public{\n    Government storage gov = governments[government_id];\nrequire(gov.tyrannical == true);\ngov.leader = candidate;\n}\nfunction spend_money(uint amount,uint government_id) public {\n    Government storage gov = governments[government_id];\n    require(gov.money >= amount);\ngov.money -= amount;\n}\nfunction tax(uint amount,uint government_id) public{\n    Government storage gov = governments[government_id];\n    require(gov.private_money >= amount);\ngov.private_money -= amount;\n}\nfunction randMod(uint _modulus) internal returns(uint) {\n    randNonce +=1;\n    return uint(keccak256(abi.encodePacked(now, msg.sender, randNonce))) % _modulus;\n  }\n  function generate_money(uint amount,uint government_id) public{\n      Government storage gov = governments[government_id];\n      gov.private_money += amount;\n  }\n\n}",
  "sourcePath": "/Users/rbeit/Documents/solidity-project/contracts/government.sol",
  "compiler": {
    "name": "solc",
    "version": "0.5.8+commit.23d335f2.Emscripten.clang"
  },
  "schemaVersion": "3.0.10",
  "updatedAt": "2019-06-05T16:28:45.231Z",
  "devdoc": {
    "methods": {}
  },
  "userdoc": {
    "methods": {}
  }
}